:100000000C947D000C94BB050C9494050C94A500F5
:100010000C94A5000C94A5000C94A5000C94A500CC
:100020000C94A5000C94A5000C94A5000C94A500BC
:100030000C94A5000C94A5000C94A5000C94A500AC
:100040000C944A050C94A5000C9418050C94F20429
:100050000C94A5000C94A5000C94A5000C94A5008C
:100060000C94A5000C94A50020703D002070776DC5
:1000700053746570556E69743D00207461726765D4
:1000800074506F7374696F6E3D00207461726765A0
:1000900074313D00506F736974696F6E3D000000EC
:1000A00000002300260029000000000800020100D3
:1000B0000003040700000000000000000000000032
:1000C000250028002B0000000000240027002A0043
:1000D00004040404040404040202020202020303EE
:1000E00003030303010204081020408001020408F6
:1000F0001020010204081020E20511241FBECFEFDA
:10010000D8E0DEBFCDBF22E0AAE4B1E001C01D927D
:10011000A438B207E1F711E0A0E0B1E0EEE4F2E1CB
:1001200002C005900D92AA34B107D9F710E0CDE7CF
:10013000D0E004C02197FE010E941A09CC37D107F4
:10014000C9F70E9436060C9425090C940000E9E6D4
:10015000F1E0A089B18982E08C93A485B5851C92D9
:10016000A685B78580E18C93108EA489B58986E039
:100170008C93A289B3898C9180618C93A289B38975
:100180008C9188608C93A289B3898C9180688C93C0
:100190000288F389E02D80818F7D808308950F93FD
:1001A0001F93CF93DF938C01C0E0D0E0F801EC0FF8
:1001B000FD1F6491662371F0E0916901F0916A017D
:1001C0000190F081E02D89E691E00995892B11F0ED
:1001D0002196ECCFCE01DF91CF911F910F91089521
:1001E0008230C8F4E82FF0E0EE0FFF1FE050FF4F21
:1001F00071836083813041F0809169008C7F8160E0
:1002000080936900E89A089580916900837F8460F3
:1002100080936900E99A0895CF93DF9390E0FC0101
:10022000EC51FF4F2491FC01E053FF4F8491882350
:10023000C1F090E0880F991FFC01EA53FF4FC59170
:10024000D491FC01E454FF4FA591B4919FB7F89469
:100250008881E22FE0958E2388838C91E823EC93AC
:100260009FBFDF91CF910895CF92DF92EF92FF92DF
:100270000F931F93CF93DF936C017A018B01C0E042
:10028000D0E0CE15DF0589F0D8016D918D01D60142
:10029000ED91FC910190F081E02DC6010995892B2B
:1002A00011F47E0102C02196ECCFC701DF91CF91FE
:1002B0001F910F91FF90EF90DF90CF900895FC0178
:1002C000918D828D981761F0828DDF01A80FB11D8D
:1002D0005D968C91928D9F5F9F73928F90E00895B1
:1002E0008FEF9FEF0895FC01918D828D981731F06B
:1002F000828DE80FF11D858D90E008958FEF9FEFBF
:100300000895FC01918D228D892F90E0805C9F4F94
:10031000821B91098F739927089589E691E00E94C5
:10032000810121E0892B09F420E0822F0895FC014E
:10033000848DDF01A80FB11DA35ABF4F2C91848D6E
:1003400090E001968F739927848FA689B7892C93A3
:10035000A089B1898C9180648C93938D848D98133E
:1003600006C00288F389E02D80818F7D8083089507
:10037000EF92FF920F931F93CF93DF93EC0181E0F5
:10038000888F9B8D8C8D981305C0E889F9898081B1
:1003900085FD24C0F62E0B8D10E00F5F1F4F0F73ED
:1003A0001127E02E8C8DE8120CC00FB607FCFACF97
:1003B000E889F989808185FFF5CFCE010E949701F8
:1003C000F1CF8B8DFE01E80FF11DE35AFF4FF08254
:1003D0000B8FEA89FB898081806207C0EE89FF89E3
:1003E0006083E889F98980818064808381E090E07E
:1003F000DF91CF911F910F91FF90EF900895CF93D0
:10040000DF93EC01888D8823C9F0EA89FB8980811C
:1004100085FD05C0A889B9898C9186FD0FC00FB6EE
:1004200007FCF5CF808185FFF2CFA889B9898C912F
:1004300085FFEDCFCE010E949701E7CFDF91CF91ED
:10044000089580E090E0892B29F00E948D018111B0
:100450000C9400000895833081F028F4813099F0E5
:100460008230A1F008958730A9F08830B9F0843047
:10047000D1F4809180008F7D03C0809180008F77C0
:1004800080938000089584B58F7702C084B58F7DF6
:1004900084BD08958091B0008F7703C08091B00033
:1004A0008F7D8093B0000895CF93DF93282F30E0A5
:1004B000F901E855FF4F8491F901EC51FF4FD491B8
:1004C000F901E053FF4FC491CC2391F081110E94B8
:1004D0002B02EC2FF0E0EE0FFF1FE256FF4FA5912D
:1004E000B491EC91ED2381E090E021F480E002C032
:1004F00080E090E0DF91CF9108951F93CF93DF9339
:10050000282F30E0F901E855FF4F8491F901EC51B3
:10051000FF4FD491F901E053FF4FC491CC23C9F0B0
:10052000162F81110E942B02EC2FF0E0EE0FFF1F1F
:10053000E454FF4FA591B4918FB7F894111105C001
:100540009C91ED2FE095E92302C0EC91ED2BEC930B
:100550008FBFDF91CF911F9108953FB7F89480919D
:10056000590190915A01A0915B01B0915C0126B5AF
:10057000A89B05C02F3F19F00196A11DB11D3FBFDB
:10058000BA2FA92F982F8827820F911DA11DB11D69
:10059000BC01CD0142E0660F771F881F991F4A9565
:1005A000D1F70895CF93DF930E94AD02609350017D
:1005B00070935101809352019093530187E00E9400
:1005C0005402EC0183E00E945402019709F059C0E3
:1005D00040914C0150914D0160914E0170914F013D
:1005E000209729F44F5F5F4F6F4F7F4F04C04150FA
:1005F00051096109710940934C0150934D01609379
:100600004E0170934F0160914C0170914D018091AA
:100610004E0190914F0120910602309107024091C6
:100620000802509109020E94FB08B90180914A0119
:1006300090914B01F901E81BF90B1E161F063CF4C3
:1006400080914A0190914B01281B390B08C0809181
:100650004A0190914B01FC01E21BF30B9F012630F4
:1006600031054CF080914A0190914B01CD2B29F43A
:100670008617970764F061E005C0861797073CF07E
:10068000FACF60E089E0DF91CF910C947D02DF9199
:10069000CF9108958F929F92AF92BF92CF92DF92A7
:1006A000EF92FF926B017C010E94AD024B015C0155
:1006B000C114D104E104F104F1F00E94AD02DC01A7
:1006C000CB0188199909AA09BB09883E9340A10565
:1006D000B10570F321E0C21AD108E108F10888EEF3
:1006E000880E83E0981EA11CB11CC114D104E10442
:1006F000F10419F7DDCFFF90EF90DF90CF90BF901E
:10070000AF909F908F9008952FB7F8946091550106
:100710007091560180915701909158012FBF089513
:100720000895CF93DF9382E00E945402EC0188E0A9
:100730000E945402C817D90731F480914A01909160
:100740004B01019605C080914A0190914B010197A0
:1007500090934B0180934A01DF91CF9108950E94BD
:1007600020096115710579F0FB0101900020E9F77E
:100770003197AF01461B570BDC01ED91FC910280D4
:10078000F381E02D099480E090E008954F925F920C
:100790006F927F92EF92FF920F931F93CF93DF930D
:1007A000CDB7DEB7A1970FB6F894DEBF0FBECDBFB1
:1007B0007C01FA01CB0119A2223008F42AE08E0153
:1007C0000F5D1F4F422E512C612C712CBF01A301D4
:1007D00092010E94D908F901CA01015011096A3039
:1007E00014F4605D01C0695CD8016C93232B242B49
:1007F000252B61F7B801C7010E94B103A1960FB67E
:10080000F894DEBF0FBECDBFDF91CF911F910F9146
:10081000FF90EF907F906F905F904F900895CF92F0
:10082000DF92EF92FF92CF93DF93AB01BC0177FF92
:1008300023C06A017B01E0916901F0916A01019096
:10084000F081E02D6DE289E691E00995EC01442705
:100850005527BA014C195D096E097F092AE089E61E
:1008600091E00E94C6038C0F9D1FDF91CF91FF90F6
:10087000EF90DF90CF9008952AE089E691E0DF9134
:10088000CF91FF90EF90DF90CF900C94C6030F9321
:100890001F93CF93DF93EC010E94B1038C0165E2BB
:1008A00071E0CE010E94B103800F911FDF91CF91C3
:1008B0001F910F9108950C94B103CF93DF93409152
:1008C00064025091650260E070E02AE089E691E000
:1008D0000E94C60364E171E089E691E00E945B0436
:1008E00084E990E00E94CF0060916A0270916B02EF
:1008F000072E000C880B990B0E940F048AE890E0E9
:100900000E94CF006091700270917102809172021A
:10091000909173020E940F048AE790E00E94CF003A
:1009200060917002709171028091720290917302D5
:10093000209178023091790240917A0250917B02A5
:100940000E94FB08CA01B9010E940F048CE690E0E6
:100950000E94CF00609178027091790280917A02B2
:1009600090917B020E940F0460917002709171025D
:1009700080917202909173022091780230917902F5
:1009800040917A0250917B020E94FB0880916A029A
:1009900090916B02B901681B790BCB0118161906EF
:1009A00044F480916A0290916B02E901C81BD90B53
:1009B00007C080916A0290916B02EC01C21BD30BBD
:1009C00088E690E00E94CF00BE01DD0F880B990BF6
:1009D0000E940F0467E271E089E691E0DF91CF9118
:1009E0000C9447041F920F920FB60F9211242F936D
:1009F0003F934F935F936F937F938F939F93AF93A7
:100A0000BF93EF93FF9389E691E00E949701FF91D6
:100A1000EF91BF91AF919F918F917F916F915F9176
:100A20004F913F912F910F900FBE0F901F901895EF
:100A30001F920F920FB60F9211242F938F939F93B3
:100A4000EF93FF93E0917901F0917A018081E09139
:100A50007F01F091800182FD12C09081809182011E
:100A60008F5F8F7320918301821751F0E091820193
:100A7000F0E0E759FE4F958F8093820101C080819D
:100A8000FF91EF919F918F912F910F900FBE0F903B
:100A90001F9018951F920F920FB60F9211242F934B
:100AA0003F938F939F93AF93BF9380915501909104
:100AB0005601A0915701B09158013091540123E0A3
:100AC000230F2D3720F40196A11DB11D05C026E886
:100AD000230F0296A11DB11D20935401809355014F
:100AE00090935601A0935701B093580180915901FA
:100AF00090915A01A0915B01B0915C010196A11DFA
:100B0000B11D8093590190935A01A0935B01B0935A
:100B10005C01BF91AF919F918F913F912F910F9069
:100B20000FBE0F901F9018951F920F920FB60F9245
:100B300011242F933F934F935F936F937F938F93E2
:100B40009F93AF93BF93EF93FF93E0910201F091D6
:100B500003010995FF91EF91BF91AF919F918F9103
:100B60007F916F915F914F913F912F910F900FBEA9
:100B70000F901F9018951F920F920FB60F9211248D
:100B80002F933F934F935F936F937F938F939F9395
:100B9000AF93BF93EF93FF93E0910001F0910101B8
:100BA0000995FF91EF91BF91AF919F918F917F91A7
:100BB0006F915F914F913F912F910F900FBE0F90CA
:100BC0001F901895E9E6F1E01382128288EE93E017
:100BD000A0E0B0E084839583A683B78388E091E0AA
:100BE0009183808385EC90E09587848784EC90E006
:100BF0009787868780EC90E0918B808B81EC90E0EA
:100C0000938B828B82EC90E0958B848B86EC90E0CA
:100C1000978B868B118E128E138E148E85E090E04A
:100C2000A0E0B0E08093060290930702A093080230
:100C3000B0930902EAE0F2E016821782108611866C
:100C4000128613861486158616861786108A118AD0
:100C5000128A138A148A158AE2E5F2E082E3DF0140
:100C60001D928A95E9F7118E108E0895CF93DF9328
:100C7000CDB7DEB7E2970FB6F894DEBF0FBECDBF9B
:100C8000789484B5826084BD84B5816084BD85B567
:100C9000826085BD85B5816085BD80916E00816073
:100CA00080936E0010928100809181008260809319
:100CB000810080918100816080938100809180001B
:100CC0008160809380008091B10084608093B10046
:100CD0008091B00081608093B00080917A00846040
:100CE00080937A0080917A00826080937A0080916C
:100CF0007A00816080937A0080917A008068809386
:100D00007A001092C10010924E0210924F0210927F
:100D100050021092510210920C0210920D02109289
:100D20000E0210920F0268EB7BE080E090E00E94E0
:100D30004A0389E691E090934D0280934C020E9411
:100D4000A7000E94840360930C0270930D028093AD
:100D50000E0290930F0266E171E080914C02909137
:100D60004D020E945B046AE070E080E090E00E9427
:100D70004A0381E0809320020E94A70068E271E0AC
:100D800089E691E00E9447040E945D0482E3E2E567
:100D9000F2E0DE01119601900D928A95E1F78981CA
:100DA0000E940C018B810E940C018D810E940C011C
:100DB0008F810E940C0161E973E080E00E94F000E5
:100DC00062ED72E081E00E94F0000E94AD02789432
:100DD00084EFC82EDD24D394E12CF12C90EA892EE7
:100DE00096E8992EAA24A394B12C0E948403672B21
:100DF000682B692B41F40E948403623071058105E0
:100E0000910508F405C10E94840360936501709305
:100E10006601809367019093680140906101509052
:100E20006201609063017090640164157505860528
:100E3000970540F4609361017093620180936301B0
:100E40009093640140906101509062016090630151
:100E5000709064019B01AC012419350946095709BA
:100E600029013A013AEF431651046104710408F470
:100E7000CFC060936101709362018093630190938E
:100E80006401C0921802D0921902E0921A02F09204
:100E90001B0210921C0210921D0210921E02109250
:100EA0001F028091100290911102A0911202B09144
:100EB00013028093140290931502A0931602B0932C
:100EC00017020E94840360931002709311028093B2
:100ED0001202909313020E94840360930C02709399
:100EE0000D0280930E0290930F020E9484032B0147
:100EF0003C016EE271E080914C0290914D020E94A3
:100F00005B042AE041E050E060E070E080914C0238
:100F100090914D020E94C60365E371E080914C02FE
:100F200090914D020E945B042AE0B301A2018091DE
:100F30004C0290914D020E94C60367E371E08091DC
:100F40004C0290914D020E945B048091100290919E
:100F50001102A0911202B0911302B301A201481B29
:100F6000590B6A0B7B0B2AE080914C0290914D0249
:100F70000E94C60367E371E080914C0290914D029C
:100F80000E945B0440911002509111026091120284
:100F9000709113028091140290911502A091160293
:100FA000B0911702481B590B6A0B7B0B2AE080910A
:100FB0004C0290914D020E94C60369E371E080915A
:100FC0004C0290914D020E945B040E948403AB018D
:100FD000BC012AE080914C0290914D020E94C60310
:100FE0006BE371E080914C0290914D020E944704A6
:100FF00062E070E080E090E00E944A030E94840377
:101000006093100270931102809312029093130266
:101010008091740290917502A0917602B09177024E
:1010200040916A0250916B02052E000C660B770B03
:1010300084179507A607B70709F445C040916A02CF
:1010400050916B02052E000C660B770B84179507E9
:10105000A607B70749F080916A0290916B02092EAA
:10106000000CAA0BBB0BEACF80937402909375021D
:10107000A0937602B093770262E471E089E691E092
:101080000E945B04409164025091650260E070E050
:101090002AE089E691E00E94C60364E171E089E6F6
:1010A00091E00E945B0460917402709175028091DE
:1010B0007602909177020E940F0465E271E089E662
:1010C00091E00E94B10340915D0150915E016091F9
:1010D0005F01709160018091700290917102A09106
:1010E0007202B0917302481759076A077B0709F427
:1010F0004FC08091700290917102A0917202B091E4
:10110000730240915D0150915E0160915F017091A9
:101110006001481759076A077B0799F080935D01C2
:1011200090935E01A0935F01B09360010E94AD02B5
:101130006093800270938102809382029093830275
:10114000D8CF66E471E089E691E00E945B044091AB
:1011500064025091650260E070E02AE089E691E067
:101160000E94C60364E171E089E691E00E945B049D
:10117000609170027091710280917202909173027D
:101180000E940F0465E271E089E691E00E94B103DC
:101190000E94AD020E94AD02A50194010E94D908EF
:1011A000672B682B692B11F40E945D040E942102B9
:1011B0001CCEA1E21A2EAA1BBB1BFD010DC0AA1F4B
:1011C000BB1FEE1FFF1FA217B307E407F50720F0B0
:1011D000A21BB30BE40BF50B661F771F881F991F2B
:1011E0001A9469F760957095809590959B01AC0174
:1011F000BD01CF010895052E97FB1EF400940E94B7
:10120000120957FD07D00E94D90807FC03D04EF4FD
:101210000C94120950954095309521953F4F4F4FB2
:101220005F4F089590958095709561957F4F8F4F92
:101230009F4F0895EE0FFF1F0590F491E02D099444
:0E12400081E090E0F8940C942509F894FFCF1B
:10124E009003900300000000B801340181015F019A
:10125E007301FF012000564D4450565F317C315FC3
:10126E00564D4450560D0A00737461727400564DFB
:10127E004450455F003A323A007C005F564D445070
:0A128E004500706F730070776D006B
:00000001FF
