:100000000C947D000C94BF050C9498050C94A500ED
:100010000C94A5000C94A5000C94A5000C94A500CC
:100020000C94A5000C94A5000C94A5000C94A500BC
:100030000C94A5000C94A5000C94A5000C94A500AC
:100040000C944E050C94A5000C941C050C94F6041D
:100050000C94A5000C94A5000C94A5000C94A5008C
:100060000C94A5000C94A50020703D002070776DC5
:1000700053746570556E69743D00207461726765D4
:1000800074506F7374696F6E3D00207461726765A0
:1000900074313D00506F736974696F6E3D000000EC
:1000A00000002300260029000000000800020100D3
:1000B0000003040700000000000000000000000032
:1000C000250028002B0000000000240027002A0043
:1000D00004040404040404040202020202020303EE
:1000E00003030303010204081020408001020408F6
:1000F0001020010204081020E60511241FBECFEFD6
:10010000D8E0DEBFCDBF22E0AAE6B1E001C01D927B
:10011000A73DB207E1F711E0A0E0B1E0E6E7F2E1C8
:1001200002C005900D92AA36B107D9F710E0CDE7CD
:10013000D0E004C02197FE010E942E09CC37D107E0
:10014000C9F70E9445060C9439090C940000EAE8AE
:10015000F1E0A089B18982E08C93A485B5851C92D9
:10016000A685B78580E18C93108EA489B58986E039
:100170008C93A289B3898C9180618C93A289B38975
:100180008C9188608C93A289B3898C9180688C93C0
:100190000288F389E02D80818F7D808308950F93FD
:1001A0001F93CF93DF938C01C0E0D0E0F801EC0FF8
:1001B000FD1F6491662371F0E0918A01F0918B013B
:1001C0000190F081E02D8AE891E00995892B11F0EA
:1001D0002196ECCFCE01DF91CF911F910F91089521
:1001E0008230C8F4E82FF0E0EE0FFF1FE050FF4F21
:1001F00071836083813041F0809169008C7F8160E0
:1002000080936900E89A089580916900837F8460F3
:1002100080936900E99A0895CF93DF9390E0FC0101
:10022000EC51FF4F2491FC01E053FF4F8491882350
:10023000C1F090E0880F991FFC01EA53FF4FC59170
:10024000D491FC01E454FF4FA591B4919FB7F89469
:100250008881E22FE0958E2388838C91E823EC93AC
:100260009FBFDF91CF910895CF92DF92EF92FF92DF
:100270000F931F93CF93DF936C017A018B01C0E042
:10028000D0E0CE15DF0589F0D8016D918D01D60142
:10029000ED91FC910190F081E02DC6010995892B2B
:1002A00011F47E0102C02196ECCFC701DF91CF91FE
:1002B0001F910F91FF90EF90DF90CF900895FC0178
:1002C000918D828D981761F0828DDF01A80FB11D8D
:1002D0005D968C91928D9F5F9F73928F90E00895B1
:1002E0008FEF9FEF0895FC01918D828D981731F06B
:1002F000828DE80FF11D858D90E008958FEF9FEFBF
:100300000895FC01918D228D892F90E0805C9F4F94
:10031000821B91098F73992708958AE891E00E94C2
:10032000810121E0892B09F420E0822F0895FC014E
:10033000848DDF01A80FB11DA35ABF4F2C91848D6E
:1003400090E001968F739927848FA689B7892C93A3
:10035000A089B1898C9180648C93938D848D98133E
:1003600006C00288F389E02D80818F7D8083089507
:10037000EF92FF920F931F93CF93DF93EC0181E0F5
:10038000888F9B8D8C8D981305C0E889F9898081B1
:1003900085FD24C0F62E0B8D10E00F5F1F4F0F73ED
:1003A0001127E02E8C8DE8120CC00FB607FCFACF97
:1003B000E889F989808185FFF5CFCE010E949701F8
:1003C000F1CF8B8DFE01E80FF11DE35AFF4FF08254
:1003D0000B8FEA89FB898081806207C0EE89FF89E3
:1003E0006083E889F98980818064808381E090E07E
:1003F000DF91CF911F910F91FF90EF900895CF93D0
:10040000DF93EC01888D8823C9F0EA89FB8980811C
:1004100085FD05C0A889B9898C9186FD0FC00FB6EE
:1004200007FCF5CF808185FFF2CFA889B9898C912F
:1004300085FFEDCFCE010E949701E7CFDF91CF91ED
:10044000089580E090E0892B29F00E948D018111B0
:100450000C9400000895833081F028F4813099F0E5
:100460008230A1F008958730A9F08830B9F0843047
:10047000D1F4809180008F7D03C0809180008F77C0
:1004800080938000089584B58F7702C084B58F7DF6
:1004900084BD08958091B0008F7703C08091B00033
:1004A0008F7D8093B0000895CF93DF93282F30E0A5
:1004B000F901E855FF4F8491F901EC51FF4FD491B8
:1004C000F901E053FF4FC491CC2391F081110E94B8
:1004D0002B02EC2FF0E0EE0FFF1FE256FF4FA5912D
:1004E000B491EC91ED2381E090E021F480E002C032
:1004F00080E090E0DF91CF9108951F93CF93DF9339
:10050000282F30E0F901E855FF4F8491F901EC51B3
:10051000FF4FD491F901E053FF4FC491CC23C9F0B0
:10052000162F81110E942B02EC2FF0E0EE0FFF1F1F
:10053000E454FF4FA591B4918FB7F894111105C001
:100540009C91ED2FE095E92302C0EC91ED2BEC930B
:100550008FBFDF91CF911F9108953FB7F89480919D
:10056000780190917901A0917A01B0917B0126B533
:10057000A89B05C02F3F19F00196A11DB11D3FBFDB
:10058000BA2FA92F982F8827820F911DA11DB11D69
:10059000BC01CD0142E0660F771F881F991F4A9565
:1005A000D1F708958F929F92AF92BF92CF92DF9230
:1005B000EF92FF926B017C010E94AD024B015C0146
:1005C000C114D104E104F104F1F00E94AD02DC0198
:1005D000CB0188199909AA09BB09883E9340A10556
:1005E000B10570F321E0C21AD108E108F10888EEE4
:1005F000880E83E0981EA11CB11CC114D104E10433
:10060000F10419F7DDCFFF90EF90DF90CF90BF900E
:10061000AF909F908F9008952FB7F89460917401D8
:100620007091750180917601909177012FBF0895A7
:100630000895CF93DF9382E00E945402EC0188E09A
:100640000E945402C817D90731F480916B01909130
:100650006C01019605C080916B0190916C0101972E
:1006600090936C0180936B01DF91CF9108950E946C
:1006700034096115710579F0FB0101900020E9F75B
:100680003197AF01461B570BDC01ED91FC910280C5
:10069000F381E02D099480E090E008954F925F92FD
:1006A0006F927F92EF92FF920F931F93CF93DF93FE
:1006B000CDB7DEB7A1970FB6F894DEBF0FBECDBFA2
:1006C0007C01FA01CB0119A2223008F42AE08E0144
:1006D0000F5D1F4F422E512C612C712CBF01A301C5
:1006E00092010E94ED08F901CA01015011096A3016
:1006F00014F4605D01C0695CD8016C93232B242B3A
:10070000252B61F7B801C7010E943903A1960FB6E6
:10071000F894DEBF0FBECDBFDF91CF911F910F9137
:10072000FF90EF907F906F905F904F900895CF92E1
:10073000DF92EF92FF92CF93DF93AB01BC0177FF83
:1007400023C06A017B01E0918A01F0918B01019045
:10075000F081E02D6DE28AE891E00995EC014427F3
:100760005527BA014C195D096E097F092AE08AE80C
:1007700091E00E944E038C0F9D1FDF91CF91FF905F
:10078000EF90DF90CF9008952AE08AE891E0DF9122
:10079000CF91FF90EF90DF90CF900C944E030F938A
:1007A0001F93CF93DF93EC010E9439038C0164E423
:1007B00071E0CE010E943903800F911FDF91CF912C
:1007C0001F910F9108950C943903CF93DF93EC019F
:1007D0004A895B8960E070E02AE08AE891E00E9443
:1007E0004E0364E171E08AE891E00E94E30384E94A
:1007F00090E00E94CF00688D798D072E000C880B49
:10080000990B0E9497038AE890E00E94CF006E8DBA
:100810007F8D88A199A10E9497038AE790E00E94AA
:10082000CF006E8D7F8D88A199A12EA13FA148A5F3
:1008300059A50E940F09CA01B9010E9497038CE6CD
:1008400090E00E94CF006EA17FA188A599A50E948B
:1008500097036E8D7F8D88A199A12EA13FA148A5F8
:1008600059A50E940F09888D998DB901681B790BD4
:10087000CB011816190634F4888D998DE901C81B2F
:10088000D90B05C0888D998DEC01C21BD30B88E66E
:1008900090E00E94CF00BE01DD0F880B990B0E94F3
:1008A000970366E471E08AE891E0DF91CF910C94C0
:1008B000CF030F931F93CF93DF9387E00E945402DF
:1008C000EC0180917101909172018C179D0741F0AC
:1008D0006C2F8AE00E947D02D0937201C093710157
:1008E00040916D0150916E0160916F0170917001A6
:1008F000209729F44F5F5F4F6F4F7F4F04C04150E7
:1009000051096109710940936D0150936E01609323
:100910006F017093700160916D0170916E01809113
:100920006F0190917001209127023091280240912F
:10093000290250912A020E940F09890180916B01BE
:1009400090916C01B901681B790BCB01181619063F
:100950003CF480916B0190916C01281B390B08C00D
:1009600080916B0190916C01BC01621B730B9B0128
:1009700080916A01811120C02B30310504F181E0A2
:1009800080936A0166E171E08AE891E00E94CF03FA
:1009900080917C0190917D010E94E50380916B0123
:1009A00090916C01CD2B21F40817190754F415C050
:1009B0000817190734F011C0121613067CF31092B1
:1009C0006A0161E089E00E947D0260E089E0DF91D8
:1009D000CF911F910F910C947D02DF91CF911F91C8
:1009E0000F91089583E792E00C94E5031F920F9214
:1009F0000FB60F9211242F933F934F935F936F93F2
:100A00007F938F939F93AF93BF93EF93FF938AE866
:100A100091E00E949701FF91EF91BF91AF919F915B
:100A20008F917F916F915F914F913F912F910F9097
:100A30000FBE0F901F9018951F920F920FB60F9236
:100A400011242F938F939F93EF93FF93E0919A013B
:100A5000F0919B018081E091A001F091A10182FDC4
:100A600012C090818091A3018F5F8F732091A401A8
:100A7000821751F0E091A301F0E0E657FE4F958F09
:100A80008093A30101C08081FF91EF919F918F918D
:100A90002F910F900FBE0F901F9018951F920F92DD
:100AA0000FB60F9211242F933F938F939F93AF9381
:100AB000BF938091740190917501A0917601B091DE
:100AC00077013091730123E0230F2D3720F4019635
:100AD000A11DB11D05C026E8230F0296A11DB11D61
:100AE000209373018093740190937501A093760114
:100AF000B09377018091780190917901A0917A016A
:100B0000B0917B010196A11DB11D80937801909356
:100B10007901A0937A01B0937B01BF91AF919F912E
:100B20008F913F912F910F900FBE0F901F901895AE
:100B30001F920F920FB60F9211242F933F934F9352
:100B40005F936F937F938F939F93AF93BF93EF9335
:100B5000FF93E0910201F09103010995FF91EF915C
:100B6000BF91AF919F918F917F916F915F914F91C5
:100B70003F912F910F900FBE0F901F9018951F92CD
:100B80000F920FB60F9211242F933F934F935F93C1
:100B90006F937F938F939F93AF93BF93EF93FF9345
:100BA000E0910001F09101010995FF91EF91BF9152
:100BB000AF919F918F917F916F915F914F913F91F5
:100BC0002F910F900FBE0F901F901895EAE8F1E05B
:100BD0001382128288EE93E0A0E0B0E084839583D4
:100BE000A683B78388E091E09183808385EC90E0D1
:100BF0009587848784EC90E09787868780EC90E0E7
:100C0000918B808B81EC90E0938B828B82EC90E0D7
:100C1000958B848B86EC90E0978B868B118E128E51
:100C2000138E148E85E090E0A0E0B0E08093270260
:100C300090932802A0932902B0932A02EBE2F2E0FB
:100C400016821782108611861286138614861586E0
:100C500016861786108A118A128A138A148A158AB0
:100C6000E3E7F2E082E3DF01982F1D929A95E9F71E
:100C7000118E108EE5EAF2E0DF011D928A95E9F708
:100C80001092BE021092BD020895CF93DF93CDB7AC
:100C9000DEB7E2970FB6F894DEBF0FBECDBF7894F3
:100CA00084B5826084BD84B5816084BD85B5826071
:100CB00085BD85B5816085BD80916E008160809322
:100CC0006E0010928100809181008260809381008B
:100CD000809181008160809381008091800081609B
:100CE000809380008091B10084608093B1008091F6
:100CF000B00081608093B00080917A00846080931E
:100D00007A0080917A00826080937A0080917A00E4
:100D1000816080937A0080917A00806880937A0065
:100D20001092C10010926F02109270021092710224
:100D30001092720210922D0210922E0210922F0227
:100D40001092300268EB7BE080E090E00E94D202DB
:100D50008AE891E090936E0280936D020E94A70052
:100D60000E940C0360932D0270932E0280932F0239
:100D70009093300265E371E080916D0290916E0274
:100D80000E94E3036AE070E080E090E00E94D202FB
:100D900081E0809341020E94A70067E471E08AE845
:100DA00091E00E94CF030E94F20482E3E3E7F2E0C5
:100DB0008E010F5F1F4FD80101900D928A95E1F7C8
:100DC00089810E940C018B810E940C018D810E94FF
:100DD0000C018F810E940C0169E173E080E00E94A8
:100DE000F00069E574E081E00E94F0000E94AD022D
:100DF00010937D0100937C01789484EFC82EDD244C
:100E0000D394E12CF12C90EA892E96E8992EAA240D
:100E1000A394B12C0E940C03672B682B692B41F41F
:100E20000E940C03623071058105910508F404C12C
:100E30000E940C0360938601709387018093880160
:100E40009093890100918201109183012091840186
:100E500030918501601771078207930740F4609312
:100E600082017093830180938401909385010091A6
:100E700082011091830120918401309185012B0121
:100E80003C01401A510A620A730A930182010A3F27
:100E900011052105310508F4CFC0609382017093DC
:100EA00083018093840190938501C0923902D0928E
:100EB0003A02E0923B02F0923C0210923D02109204
:100EC0003E0210923F0210924002809131029091B6
:100ED0003202A0913302B091340280933502909394
:100EE0003602A0933702B09338020E940C0360933D
:100EF00031027093320280933302909334020E9445
:100F00000C0360932D0270932E0280932F02909316
:100F100030020E940C032B013C016DE471E08091D2
:100F20006D0290916E020E94E3032AE041E050E0DE
:100F300060E070E080916D0290916E020E944E031D
:100F400064E571E080916D0290916E020E94E3036E
:100F50002AE0B301A20180916D0290916E020E947D
:100F60004E0366E571E080916D0290916E020E94E1
:100F7000E3038091310290913202A0913302B0914B
:100F80003402B301A201481B590B6A0B7B0B2AE008
:100F900080916D0290916E020E944E0366E571E0B1
:100FA00080916D0290916E020E94E30340913102A4
:100FB0005091320260913302709134028091350277
:100FC00090913602A0913702B0913802481B590B1C
:100FD0006A0B7B0B2AE080916D0290916E020E9459
:100FE0004E0368E571E080916D0290916E020E945F
:100FF000E3030E940C03AB01BC012AE080916D0267
:1010000090916E020E944E036AE571E080916D023C
:1010100090916E020E94CF0362E070E080E090E069
:101020000E94D2020E940C0360933102709332023C
:1010300080933302909334028091950290919602AE
:10104000A0919702B091980240918B0250918C022E
:10105000052E000C660B770B84179507A607B707BC
:1010600009F445C040918B0250918C02052E000C72
:10107000660B770B84179507A607B70749F0809191
:101080008B0290918C02092E000CAA0BBB0BEACFAD
:101090008093950290939602A0939702B093980242
:1010A00061E671E08AE891E00E94E30340918502E5
:1010B0005091860260E070E02AE08AE891E00E94A8
:1010C0004E0364E171E08AE891E00E94E3036091DD
:1010D00095027091960280919702909198020E94D9
:1010E000970364E471E08AE891E00E94390340913B
:1010F0007E0150917F01609180017091810180910A
:10110000910290919202A0919302B091940248179B
:1011100059076A077B0709F44FC0809191029091AB
:101120009202A0919302B091940240917E0150915D
:101130007F016091800170918101481759076A070A
:101140007B0799F080937E0190937F01A0938001AB
:10115000B09381010E94AD026093A1027093A2023C
:101160008093A3029093A402D8CF65E671E08AE849
:1011700091E00E94E303409185025091860260E075
:1011800070E02AE08AE891E00E944E0364E171E099
:101190008AE891E00E94E3036091910270919202CB
:1011A00080919302909194020E94970364E471E00D
:1011B0008AE891E00E9439030E94AD020E94AD02CC
:1011C000A50194010E94ED08672B682B692B11F48F
:1011D0000E94F2040E9421021DCEA1E21A2EAA1B37
:1011E000BB1BFD010DC0AA1FBB1FEE1FFF1FA217D7
:1011F000B307E407F50720F0A21BB30BE40BF50BD4
:10120000661F771F881F991F1A9469F7609570955C
:10121000809590959B01AC01BD01CF010895052EED
:1012200097FB1EF400940E94260957FD07D00E94E8
:10123000ED0807FC03D04EF40C9426095095409518
:10124000309521953F4F4F4F5F4F08959095809572
:10125000709561957F4F8F4F9F4F0895EE0FFF1F41
:101260000590F491E02D099481E090E0F8940C94BD
:061270003909F894FFCFDC
:101276001803180300000000B801340181015F0162
:101286007301FF0120002D2D2D2D2D2D2D2D2D2D02
:101296002D2D2D2D7472796669782D2D2D2D2D2DE0
:1012A6002D2D2D2D00564D4450565F317C315F5605
:1012B6004D4450560D0A00737461727400564D44C5
:1012C60050455F003A323A007C005F564D44504527
:0A12D60000706F730070776D000068
:107800000C94343C0C94513C0C94513C0C94513CE1
:107810000C94513C0C94513C0C94513C0C94513CB4
:107820000C94513C0C94513C0C94513C0C94513CA4
:107830000C94513C0C94513C0C94513C0C94513C94
:107840000C94513C0C94513C0C94513C0C94513C84
:107850000C94513C0C94513C0C94513C0C94513C74
:107860000C94513C0C94513C11241FBECFEFD8E036
:10787000DEBFCDBF11E0A0E0B1E0ECE9FFE702C060
:1078800005900D92A230B107D9F712E0A2E0B1E065
:1078900001C01D92AD30B107E1F70E942D3D0C945F
:1078A000CC3F0C94003C982F959595959595959582
:1078B000905D8F708A307CF0282F295A8091C0000B
:1078C00085FFFCCF9093C6008091C00085FFFCCF60
:1078D0002093C6000895282F205DF0CF982F809127
:1078E000C00085FFFCCF9093C6000895EF92FF92F1
:1078F0000F931F93EE24FF2487018091C00087FD22
:1079000017C00894E11CF11C011D111D81E4E8164B
:1079100082E4F8068FE0080780E0180770F3E09132
:107920000401F091050109958091C00087FFE9CF1E
:107930008091C6001F910F91FF90EF9008950E94D3
:10794000763C982F8091C00085FFFCCF9093C600B5
:1079500091362CF490330CF09053892F089597555D
:10796000892F08951F930E949F3C182F0E949F3CCF
:107970001295107F810F1F9108951F93182F882350
:1079800021F00E94763C1150E1F71F9108951F935A
:10799000182F0E94763C803249F0809103018F5F5E
:1079A000809303018530C1F01F9108958091C0003C
:1079B00085FFFCCF84E18093C6008091C00085FFE5
:1079C000FCCF1093C6008091C00085FFFCCF80E102
:1079D0008093C6001F910895E0910401F091050184
:1079E00009951F9108950E94763C803241F0809164
:1079F00003018F5F80930301853081F008958091AA
:107A0000C00085FFFCCF84E18093C6008091C00058
:107A100085FFFCCF80E18093C6000895E0910401CA
:107A2000F09105010995089540E951E08823A1F0FE
:107A30002D9A28EE33E0FA013197F1F721503040CA
:107A4000D1F72D9828EE33E0FA013197F1F7215064
:107A50003040D1F7815061F708953F924F925F9285
:107A60006F927F928F929F92AF92BF92CF92DF924E
:107A7000EF92FF920F931F93CF93DF93000080E16B
:107A80008093C4001092C50088E18093C10086E015
:107A90008093C2005098589A259A81E00E94143D24
:107AA00024E1F22E9EE1E92E85E9D82E0FE0C02ECA
:107AB00010E1B12EAA24A394B1E49B2EA6E58A2E50
:107AC000F2E57F2EE0E26E2E79E4572E63E5462E36
:107AD00050E5352E0E94763C8033B1F18133B9F107
:107AE000803409F46FC0813409F476C0823409F41B
:107AF00085C0853409F488C0803531F1823521F1A3
:107B0000813511F1853509F485C0863509F48DC0BC
:107B1000843609F496C0843709F403C1853709F423
:107B200072C1863709F466C0809103018F5F80932C
:107B30000301853079F6E0910401F0910501099582
:107B40000E94763C803351F60E94F33CC3CF0E94E2
:107B5000763C803249F78091C00085FFFCCFF092DF
:107B6000C6008091C00085FFFCCF9092C600809136
:107B7000C00085FFFCCF8092C6008091C00085FFC9
:107B8000FCCF7092C6008091C00085FFFCCF609250
:107B9000C6008091C00085FFFCCF5092C600809146
:107BA000C00085FFFCCF4092C6008091C00085FFD9
:107BB000FCCF3092C6008091C00085FFFCCFB09210
:107BC000C60088CF0E94763C863808F4BDCF0E945C
:107BD000763C0E94F33C7ECF0E94763C803809F4CC
:107BE0009CC0813809F40BC1823809F43CC1883942
:107BF00009F48FC080E00E94C73C6CCF84E10E94F2
:107C0000BD3C0E94F33C66CF85E00E94BD3C0E94D3
:107C1000F33C60CF0E94763C809306010E94763C44
:107C2000809307010E94F33C55CF0E94763C80333D
:107C300009F41DC183E00E94BD3C80E00E94C73C66
:107C400049CF0E94763C809309020E94763C809343
:107C5000080280910C028E7F80930C020E94763C79
:107C6000853409F415C18091080290910902892B8D
:107C700089F000E010E00E94763CF801E85FFE4FDA
:107C800080830F5F1F4F80910802909109020817AF
:107C9000190788F30E94763C803209F045CF809125
:107CA0000C0280FF01C16091060170910701660F0F
:107CB000771F7093070160930601A0910802B091AD
:107CC00009021097C9F0E8E0F1E09B01AD014E0F09
:107CD0005F1FF999FECF32BD21BD819180BDFA9A17
:107CE000F99A2F5F3F4FE417F50799F76A0F7B1F4B
:107CF00070930701609306018091C00085FFFCCF5F
:107D0000F092C6008091C00085FFFCCFB092C60003
:107D1000E1CE83E00E94C73CDDCE82E00E94C73CFA
:107D2000D9CE0E94763C809309020E94763C8093D3
:107D300008028091060190910701880F991F909386
:107D40000701809306010E94763C853409F4A6C0A1
:107D500080910C028E7F80930C020E94763C8032D0
:107D600009F0B8CE8091C00085FFFCCFF092C6002C
:107D7000609108027091090261157105B9F140E046
:107D800050E080910C02A82FA170B82FB27011C0E2
:107D9000BB2309F45CC0E0910601F0910701319624
:107DA000F0930701E09306014F5F5F4F46175707B7
:107DB000E8F4AA2369F3F999FECF209106013091E6
:107DC000070132BD21BDF89A90B58091C00085FFB2
:107DD000FCCF9093C6002F5F3F4F30930701209355
:107DE00006014F5F5F4F4617570718F38091C00099
:107DF00085FDE5CE8091C00085FFF8CFE0CE81E023
:107E00000E94C73C67CE0E94763C803209F08CCE3F
:107E10008091C00085FFFCCFF092C6008091C00029
:107E200085FFFCCFE092C6008091C00085FFFCCFAB
:107E3000D092C6008091C00085FFFCCFC092C600E2
:107E40008091C00085FFFCCFB092C60043CEE09188
:107E50000601F091070194918091C00085FFFCCF4D
:107E60009093C6009CCF80E10E94C73C33CE0E9415
:107E7000763C0E94763C182F0E94763C112309F430
:107E800083C0113009F484C08FE00E94C73C22CE29
:107E900080910C02816080930C02E5CE80910C02EF
:107EA000816080930C0259CF809107018823880F4D
:107EB000880B8A2180930B02809106019091070123
:107EC000880F991F90930701809306018091080203
:107ED00080FF09C080910802909109020196909359
:107EE000090280930802F894F999FECF1127E091D6
:107EF0000601F0910701C8E0D1E08091080290915D
:107F00000902103091F40091570001700130D9F34B
:107F100003E000935700E89500915700017001308D
:107F2000D9F301E100935700E89509901990009169
:107F3000570001700130D9F301E000935700E89534
:107F40001395103498F011270091570001700130FB
:107F5000D9F305E000935700E895009157000170B0
:107F60000130D9F301E100935700E895329602976A
:107F700009F0C7CF103011F00296E5CF112480919F
:107F8000C00085FFB9CEBCCE8EE10E94C73CA2CD19
:0C7F900085E90E94C73C9ECDF894FFCF0D
:027F9C00800063
:040000030000780081
:00000001FF